{
  "contractName": "YouTube",
  "abi": [
    {
      "inputs": [],
      "stateMutability": "nonpayable",
      "type": "constructor"
    },
    {
      "anonymous": false,
      "inputs": [
        {
          "indexed": false,
          "internalType": "uint256",
          "name": "id",
          "type": "uint256"
        },
        {
          "indexed": false,
          "internalType": "string",
          "name": "hash",
          "type": "string"
        },
        {
          "indexed": false,
          "internalType": "string",
          "name": "title",
          "type": "string"
        },
        {
          "indexed": false,
          "internalType": "string",
          "name": "description",
          "type": "string"
        },
        {
          "indexed": false,
          "internalType": "string",
          "name": "location",
          "type": "string"
        },
        {
          "indexed": false,
          "internalType": "string",
          "name": "category",
          "type": "string"
        },
        {
          "indexed": false,
          "internalType": "string",
          "name": "thumbnailHash",
          "type": "string"
        },
        {
          "indexed": false,
          "internalType": "string",
          "name": "date",
          "type": "string"
        },
        {
          "indexed": false,
          "internalType": "address",
          "name": "author",
          "type": "address"
        }
      ],
      "name": "VideoUploaded",
      "type": "event"
    },
    {
      "inputs": [],
      "name": "name",
      "outputs": [
        {
          "internalType": "string",
          "name": "",
          "type": "string"
        }
      ],
      "stateMutability": "view",
      "type": "function",
      "constant": true
    },
    {
      "inputs": [],
      "name": "videoCount",
      "outputs": [
        {
          "internalType": "uint256",
          "name": "",
          "type": "uint256"
        }
      ],
      "stateMutability": "view",
      "type": "function",
      "constant": true
    },
    {
      "inputs": [
        {
          "internalType": "uint256",
          "name": "",
          "type": "uint256"
        }
      ],
      "name": "videos",
      "outputs": [
        {
          "internalType": "uint256",
          "name": "id",
          "type": "uint256"
        },
        {
          "internalType": "string",
          "name": "hash",
          "type": "string"
        },
        {
          "internalType": "string",
          "name": "title",
          "type": "string"
        },
        {
          "internalType": "string",
          "name": "description",
          "type": "string"
        },
        {
          "internalType": "string",
          "name": "location",
          "type": "string"
        },
        {
          "internalType": "string",
          "name": "category",
          "type": "string"
        },
        {
          "internalType": "string",
          "name": "thumbnailHash",
          "type": "string"
        },
        {
          "internalType": "string",
          "name": "date",
          "type": "string"
        },
        {
          "internalType": "address",
          "name": "author",
          "type": "address"
        }
      ],
      "stateMutability": "view",
      "type": "function",
      "constant": true
    },
    {
      "inputs": [
        {
          "internalType": "string",
          "name": "_videoHash",
          "type": "string"
        },
        {
          "internalType": "string",
          "name": "_title",
          "type": "string"
        },
        {
          "internalType": "string",
          "name": "_description",
          "type": "string"
        },
        {
          "internalType": "string",
          "name": "_location",
          "type": "string"
        },
        {
          "internalType": "string",
          "name": "_category",
          "type": "string"
        },
        {
          "internalType": "string",
          "name": "_thumbnailHash",
          "type": "string"
        },
        {
          "internalType": "string",
          "name": "_date",
          "type": "string"
        }
      ],
      "name": "uploadVideo",
      "outputs": [],
      "stateMutability": "nonpayable",
      "type": "function"
    }
  ],
  "bytecode": "0x6080604052600080556040518060400160405280600781526020017f596f75547562650000000000000000000000000000000000000000000000000081525060019080519060200190620000559291906200006a565b503480156200006357600080fd5b506200017f565b82805462000078906200011a565b90600052602060002090601f0160209004810192826200009c5760008555620000e8565b82601f10620000b757805160ff1916838001178555620000e8565b82800160010185558215620000e8579182015b82811115620000e7578251825591602001919060010190620000ca565b5b509050620000f79190620000fb565b5090565b5b8082111562000116576000816000905550600101620000fc565b5090565b600060028204905060018216806200013357607f821691505b602082108114156200014a576200014962000150565b5b50919050565b7f4e487b7100000000000000000000000000000000000000000000000000000000600052602260045260246000fd5b610e28806200018f6000396000f3fe608060405234801561001057600080fd5b506004361061004c5760003560e01c806306fdde0314610051578063a1df8fa41461006f578063c61b5f4c1461008b578063e6821bf5146100a9575b600080fd5b6100596100e1565b6040516100669190610acc565b60405180910390f35b61008960048036038101906100849190610906565b61016f565b005b6100936103ba565b6040516100a09190610aee565b60405180910390f35b6100c360048036038101906100be9190610a4c565b6103c0565b6040516100d899989796959493929190610b09565b60405180910390f35b600180546100ee90610cc2565b80601f016020809104026020016040519081016040528092919081815260200182805461011a90610cc2565b80156101675780601f1061013c57610100808354040283529160200191610167565b820191906000526020600020905b81548152906001019060200180831161014a57829003601f168201915b505050505081565b600087511161017d57600080fd5b600086511161018b57600080fd5b600073ffffffffffffffffffffffffffffffffffffffff163373ffffffffffffffffffffffffffffffffffffffff1614156101c557600080fd5b6000808154809291906101d790610cf4565b919050555060405180610120016040528060005481526020018881526020018781526020018681526020018581526020018481526020018381526020018281526020013373ffffffffffffffffffffffffffffffffffffffff16815250600260008054815260200190815260200160002060008201518160000155602082015181600101908051906020019061026e9291906107e6565b50604082015181600201908051906020019061028b9291906107e6565b5060608201518160030190805190602001906102a89291906107e6565b5060808201518160040190805190602001906102c59291906107e6565b5060a08201518160050190805190602001906102e29291906107e6565b5060c08201518160060190805190602001906102ff9291906107e6565b5060e082015181600701908051906020019061031c9291906107e6565b506101008201518160080160006101000a81548173ffffffffffffffffffffffffffffffffffffffff021916908373ffffffffffffffffffffffffffffffffffffffff1602179055509050507f0b0639108adcb9c8f8ce68f9c4abb1e07cd8fa50cc559b5a55a875a79b579f4660005488888888888888336040516103a999989796959493929190610b09565b60405180910390a150505050505050565b60005481565b60026020528060005260406000206000915090508060000154908060010180546103e990610cc2565b80601f016020809104026020016040519081016040528092919081815260200182805461041590610cc2565b80156104625780601f1061043757610100808354040283529160200191610462565b820191906000526020600020905b81548152906001019060200180831161044557829003601f168201915b50505050509080600201805461047790610cc2565b80601f01602080910402602001604051908101604052809291908181526020018280546104a390610cc2565b80156104f05780601f106104c5576101008083540402835291602001916104f0565b820191906000526020600020905b8154815290600101906020018083116104d357829003601f168201915b50505050509080600301805461050590610cc2565b80601f016020809104026020016040519081016040528092919081815260200182805461053190610cc2565b801561057e5780601f106105535761010080835404028352916020019161057e565b820191906000526020600020905b81548152906001019060200180831161056157829003601f168201915b50505050509080600401805461059390610cc2565b80601f01602080910402602001604051908101604052809291908181526020018280546105bf90610cc2565b801561060c5780601f106105e15761010080835404028352916020019161060c565b820191906000526020600020905b8154815290600101906020018083116105ef57829003601f168201915b50505050509080600501805461062190610cc2565b80601f016020809104026020016040519081016040528092919081815260200182805461064d90610cc2565b801561069a5780601f1061066f5761010080835404028352916020019161069a565b820191906000526020600020905b81548152906001019060200180831161067d57829003601f168201915b5050505050908060060180546106af90610cc2565b80601f01602080910402602001604051908101604052809291908181526020018280546106db90610cc2565b80156107285780601f106106fd57610100808354040283529160200191610728565b820191906000526020600020905b81548152906001019060200180831161070b57829003601f168201915b50505050509080600701805461073d90610cc2565b80601f016020809104026020016040519081016040528092919081815260200182805461076990610cc2565b80156107b65780601f1061078b576101008083540402835291602001916107b6565b820191906000526020600020905b81548152906001019060200180831161079957829003601f168201915b5050505050908060080160009054906101000a900473ffffffffffffffffffffffffffffffffffffffff16905089565b8280546107f290610cc2565b90600052602060002090601f016020900481019282610814576000855561085b565b82601f1061082d57805160ff191683800117855561085b565b8280016001018555821561085b579182015b8281111561085a57825182559160200191906001019061083f565b5b509050610868919061086c565b5090565b5b8082111561088557600081600090555060010161086d565b5090565b600061089c61089784610bf8565b610bc7565b9050828152602081018484840111156108b457600080fd5b6108bf848285610c80565b509392505050565b600082601f8301126108d857600080fd5b81356108e8848260208601610889565b91505092915050565b60008135905061090081610ddb565b92915050565b600080600080600080600060e0888a03121561092157600080fd5b600088013567ffffffffffffffff81111561093b57600080fd5b6109478a828b016108c7565b975050602088013567ffffffffffffffff81111561096457600080fd5b6109708a828b016108c7565b965050604088013567ffffffffffffffff81111561098d57600080fd5b6109998a828b016108c7565b955050606088013567ffffffffffffffff8111156109b657600080fd5b6109c28a828b016108c7565b945050608088013567ffffffffffffffff8111156109df57600080fd5b6109eb8a828b016108c7565b93505060a088013567ffffffffffffffff811115610a0857600080fd5b610a148a828b016108c7565b92505060c088013567ffffffffffffffff811115610a3157600080fd5b610a3d8a828b016108c7565b91505092959891949750929550565b600060208284031215610a5e57600080fd5b6000610a6c848285016108f1565b91505092915050565b610a7e81610c44565b82525050565b6000610a8f82610c28565b610a998185610c33565b9350610aa9818560208601610c8f565b610ab281610dca565b840191505092915050565b610ac681610c76565b82525050565b60006020820190508181036000830152610ae68184610a84565b905092915050565b6000602082019050610b036000830184610abd565b92915050565b600061012082019050610b1f600083018c610abd565b8181036020830152610b31818b610a84565b90508181036040830152610b45818a610a84565b90508181036060830152610b598189610a84565b90508181036080830152610b6d8188610a84565b905081810360a0830152610b818187610a84565b905081810360c0830152610b958186610a84565b905081810360e0830152610ba98185610a84565b9050610bb9610100830184610a75565b9a9950505050505050505050565b6000604051905081810181811067ffffffffffffffff82111715610bee57610bed610d9b565b5b8060405250919050565b600067ffffffffffffffff821115610c1357610c12610d9b565b5b601f19601f8301169050602081019050919050565b600081519050919050565b600082825260208201905092915050565b6000610c4f82610c56565b9050919050565b600073ffffffffffffffffffffffffffffffffffffffff82169050919050565b6000819050919050565b82818337600083830152505050565b60005b83811015610cad578082015181840152602081019050610c92565b83811115610cbc576000848401525b50505050565b60006002820490506001821680610cda57607f821691505b60208210811415610cee57610ced610d6c565b5b50919050565b6000610cff82610c76565b91507fffffffffffffffffffffffffffffffffffffffffffffffffffffffffffffffff821415610d3257610d31610d3d565b5b600182019050919050565b7f4e487b7100000000000000000000000000000000000000000000000000000000600052601160045260246000fd5b7f4e487b7100000000000000000000000000000000000000000000000000000000600052602260045260246000fd5b7f4e487b7100000000000000000000000000000000000000000000000000000000600052604160045260246000fd5b6000601f19601f8301169050919050565b610de481610c76565b8114610def57600080fd5b5056fea264697066735822122093a9b0a00232e567902c8c93cc4fde108db171a531b23537637b9fc355dc6b8f64736f6c63430008000033",
  "immutableReferences": {},
  "source": "pragma solidity ^0.8.0;\n\ncontract YouTube {\n    // Declaring the videoCount 0 by default\n    uint256 public videoCount = 0;\n    // Name of your contract\n    string public name = \"YouTube\";\n    // Creating a mapping of videoCount to Video\n    mapping(uint256 => Video) public videos;\n\n    //  Create a struct called 'Video' with the following properties:\n    struct Video {\n        uint256 id;\n        string hash;\n        string title;\n        string description;\n        string location;\n        string category;\n        string thumbnailHash;\n        string date;\n        address author;\n    }\n\n    // Create a 'VideoUploaded' event that emits the properties of the video\n    event VideoUploaded(\n        uint256 id,\n        string hash,\n        string title,\n        string description,\n        string location,\n        string category,\n        string thumbnailHash,\n        string date,\n        address author\n    );\n\n    constructor() {}\n\n    // Function to upload a video\n    function uploadVideo(\n        string memory _videoHash,\n        string memory _title,\n        string memory _description,\n        string memory _location,\n        string memory _category,\n        string memory _thumbnailHash,\n        string memory _date\n    ) public {\n        // Validating the video hash, title and author's address\n        require(bytes(_videoHash).length > 0);\n        require(bytes(_title).length > 0);\n        require(msg.sender != address(0));\n\n        // Incrementing the video count\n        videoCount++;\n        // Adding the video to the contract\n        videos[videoCount] = Video(\n            videoCount,\n            _videoHash,\n            _title,\n            _description,\n            _location,\n            _category,\n            _thumbnailHash,\n            _date,\n            msg.sender\n        );\n        // Triggering the event\n        emit VideoUploaded(\n            videoCount,\n            _videoHash,\n            _title,\n            _description,\n            _location,\n            _category,\n            _thumbnailHash,\n            _date,\n            msg.sender\n        );\n    }\n}",
  "sourcePath": "/Users/rakeshsingh/Desktop/CPSC-559-Final-Project/web3-youtube/contracts/Youtube.sol",
  "compiler": {
    "name": "solc",
    "version": "0.8.0+commit.c7dfd78e.Emscripten.clang"
  },
  "schemaVersion": "3.4.11",
  "updatedAt": "2023-05-06T22:09:30.590Z",
  "networkType": "ethereum",
  "devdoc": {
    "kind": "dev",
    "methods": {},
    "version": 1
  },
  "userdoc": {
    "kind": "user",
    "methods": {},
    "version": 1
  }
}